{
    "contractName": "Flight",
    "abi": [
        {
            "inputs": [
                {
                    "internalType": "string",
                    "name": "_flightNumber",
                    "type": "string"
                },
                {
                    "internalType": "uint256",
                    "name": "departureDateTime",
                    "type": "uint256"
                },
                {
                    "internalType": "uint16",
                    "name": "_seatingCapacity",
                    "type": "uint16"
                },
                {
                    "internalType": "uint256",
                    "name": "_amountPerSeat",
                    "type": "uint256"
                }
            ],
            "stateMutability": "nonpayable",
            "type": "constructor"
        },
        {
            "inputs": [
                {
                    "internalType": "string",
                    "name": "_flightNumber",
                    "type": "string"
                },
                {
                    "internalType": "uint256",
                    "name": "_departureDateTime",
                    "type": "uint256"
                },
                {
                    "internalType": "uint16",
                    "name": "_numberOfSeats",
                    "type": "uint16"
                },
                {
                    "internalType": "address",
                    "name": "_ticketAgreementAddress",
                    "type": "address"
                }
            ],
            "name": "bookTicket",
            "outputs": [
                {
                    "internalType": "uint16",
                    "name": "",
                    "type": "uint16"
                },
                {
                    "internalType": "address",
                    "name": "",
                    "type": "address"
                }
            ],
            "stateMutability": "nonpayable",
            "type": "function"
        },
        {
            "inputs": [],
            "name": "cancelled",
            "outputs": [
                {
                    "internalType": "uint16",
                    "name": "",
                    "type": "uint16"
                }
            ],
            "stateMutability": "view",
            "type": "function"
        },
        {
            "inputs": [
                {
                    "internalType": "uint256",
                    "name": "_revisedDateTime",
                    "type": "uint256"
                }
            ],
            "name": "delayed",
            "outputs": [
                {
                    "internalType": "bool",
                    "name": "",
                    "type": "bool"
                }
            ],
            "stateMutability": "pure",
            "type": "function"
        },
        {
            "inputs": [
                {
                    "internalType": "uint256",
                    "name": "_departureDateTime",
                    "type": "uint256"
                }
            ],
            "name": "departed",
            "outputs": [
                {
                    "internalType": "uint16",
                    "name": "",
                    "type": "uint16"
                }
            ],
            "stateMutability": "view",
            "type": "function"
        }
    ],
    "bytecode": "608060405234801561001057600080fd5b50604051610a99380380610a9983398101604081905261002f9161012f565b8351610042906000906020870190610069565b506001929092556002805463ffffffff191661ffff9092169190911790556003555061025d565b82805461007590610223565b90600052602060002090601f01602090048101928261009757600085556100dd565b82601f106100b057805160ff19168380011785556100dd565b828001600101855582156100dd579182015b828111156100dd5782518255916020019190600101906100c2565b506100e99291506100ed565b5090565b5b808211156100e957600081556001016100ee565b634e487b7160e01b600052604160045260246000fd5b805161ffff8116811461012a57600080fd5b919050565b6000806000806080858703121561014557600080fd5b84516001600160401b038082111561015c57600080fd5b818701915087601f83011261017057600080fd5b81518181111561018257610182610102565b604051601f8201601f19908116603f011681019083821181831017156101aa576101aa610102565b81604052828152602093508a848487010111156101c657600080fd5b600091505b828210156101e857848201840151818301850152908301906101cb565b828211156101f95760008484830101525b809850505050808701519450505061021360408601610118565b6060959095015193969295505050565b600181811c9082168061023757607f821691505b60208210810361025757634e487b7160e01b600052602260045260246000fd5b50919050565b61082d8061026c6000396000f3fe608060405234801561001057600080fd5b506004361061004c5760003560e01c80639a82a09a14610051578063a5f4399e14610071578063c89d9e31146100a6578063d1164653146100ca575b600080fd5b60025461ffff165b60405161ffff90911681526020015b60405180910390f35b61008461007f366004610280565b6100e3565b6040805161ffff90931683526001600160a01b03909116602083015201610068565b6100ba6100b436600461035c565b50600190565b6040519015158152602001610068565b6100596100d836600461035c565b5060025461ffff1690565b600254600090819061ffff908116908516111561013b5760405162461bcd60e51b81526020600482015260126024820152714e6f20736561747320617661696c61626c6560701b604482015260640160405180910390fd5b60006003548561ffff1661014f919061038b565b600154600280549293506000928392919081906101759062010000900461ffff166103aa565b91906101000a81548161ffff021916908361ffff160217905588858960405161019d9061022f565b6101ac969594939291906103cb565b604051809103906000f0801580156101c8573d6000803e3d6000fd5b50600480546001810182556000919091527f8a35acfbc15ff81a39ae7d344fd709f28e8600b4aa8c65c6b64bfe7fe36bd19b0180546001600160a01b0319166001600160a01b03831617905560025462010000900461ffff16999098509650505050505050565b61034a806104ae83390190565b634e487b7160e01b600052604160045260246000fd5b803561ffff8116811461026457600080fd5b919050565b80356001600160a01b038116811461026457600080fd5b6000806000806080858703121561029657600080fd5b843567ffffffffffffffff808211156102ae57600080fd5b818701915087601f8301126102c257600080fd5b8135818111156102d4576102d461023c565b604051601f8201601f19908116603f011681019083821181831017156102fc576102fc61023c565b816040528281528a602084870101111561031557600080fd5b8260208601602083013760006020848301015280985050505050506020850135925061034360408601610252565b915061035160608601610269565b905092959194509250565b60006020828403121561036e57600080fd5b5035919050565b634e487b7160e01b600052601160045260246000fd5b60008160001904831182151516156103a5576103a5610375565b500290565b600061ffff8083168181036103c1576103c1610375565b6001019392505050565b60c081526000808854818160011c905060018216806103eb57607f821691505b6020808310820361040a57634e487b7160e01b85526022600452602485fd5b60c0870183905260e08701828015610429576001811461043a57610467565b60ff19861682528282019650610467565b60008f81526020902060005b86811015610461578154848201526001909101908401610446565b83019750505b505086018b905250505061ffff87166040840152905061ffff851660608301528360808301526104a260a08301846001600160a01b03169052565b97965050505050505056fe608060405234801561001057600080fd5b5060405161034a38038061034a83398101604081905261002f91610175565b8551610042906001906020890190610098565b506002949094556003805461ffff1990811661ffff95861617909155600580549091169290931691909117909155600455600080546001600160a01b0319166001600160a01b03909216919091179055506102c5565b8280546100a49061028b565b90600052602060002090601f0160209004810192826100c6576000855561010c565b82601f106100df57805160ff191683800117855561010c565b8280016001018555821561010c579182015b8281111561010c5782518255916020019190600101906100f1565b5061011892915061011c565b5090565b5b80821115610118576000815560010161011d565b634e487b7160e01b600052604160045260246000fd5b805161ffff8116811461015957600080fd5b919050565b80516001600160a01b038116811461015957600080fd5b60008060008060008060c0878903121561018e57600080fd5b86516001600160401b03808211156101a557600080fd5b818901915089601f8301126101b957600080fd5b8151818111156101cb576101cb610131565b604051601f8201601f19908116603f011681019083821181831017156101f3576101f3610131565b81604052828152602093508c8484870101111561020f57600080fd5b600091505b828210156102315784820184015181830185015290830190610214565b828211156102425760008484830101525b809a50505050808901519650505061025c60408801610147565b935061026a60608801610147565b92506080870151915061027f60a0880161015e565b90509295509295509295565b600181811c9082168061029f57607f821691505b6020821081036102bf57634e487b7160e01b600052602260045260246000fd5b50919050565b6077806102d36000396000f3fe6080604052348015600f57600080fd5b506004361060285760003560e01c8063ea8a1af014602d575b600080fd5b604080516000815290519081900360200190f3fea26469706673582212206c472420262204172c29c80587fcb040e4a4b848ef627fb63f1abb5ae9e8d84764736f6c634300080d0033a264697066735822122028ec695bc00d938cbd5f08c556cc33a89b9351e02a6be96f2bcf4cd4dbf6ce3464736f6c634300080d0033",
    "sourcePath": "c:/Users/Vishal.Chawre/Downloads/Capstone-Project/group2/src/contracts/Flight.sol",
    "compiler": {
        "name": "solc",
        "version": "0.8.13+commit.abaa5c0e"
    },
    "functionHashes": {
        "bookTicket(string,uint256,uint16,address)": "a5f4399e",
        "cancelled()": "9a82a09a",
        "delayed(uint256)": "c89d9e31",
        "departed(uint256)": "d1164653"
    },
    "gasEstimates": {
        "creation": {
            "codeDepositCost": "418600",
            "executionCost": "infinite",
            "totalCost": "infinite"
        },
        "external": {
            "bookTicket(string,uint256,uint16,address)": "infinite",
            "cancelled()": "2263",
            "delayed(uint256)": "302",
            "departed(uint256)": "2422"
        }
    }
}