{
    "contractName": "Flight",
    "abi": [
        {
            "inputs": [
                {
                    "internalType": "string",
                    "name": "flightNumber",
                    "type": "string"
                },
                {
                    "internalType": "uint256",
                    "name": "departureDateTime",
                    "type": "uint256"
                },
                {
                    "internalType": "uint16",
                    "name": "seatingCapacity",
                    "type": "uint16"
                },
                {
                    "internalType": "uint256",
                    "name": "perSeatCharge",
                    "type": "uint256"
                }
            ],
            "stateMutability": "nonpayable",
            "type": "constructor"
        },
        {
            "inputs": [
                {
                    "components": [
                        {
                            "internalType": "string",
                            "name": "name",
                            "type": "string"
                        },
                        {
                            "internalType": "address",
                            "name": "buyerAddress",
                            "type": "address"
                        }
                    ],
                    "internalType": "struct SharedStructs.Buyer",
                    "name": "buyer",
                    "type": "tuple"
                },
                {
                    "internalType": "uint16",
                    "name": "numberOfSeatsRequired",
                    "type": "uint16"
                },
                {
                    "internalType": "address",
                    "name": "ticketAgreementAddress",
                    "type": "address"
                }
            ],
            "name": "bookTicket",
            "outputs": [
                {
                    "internalType": "uint16",
                    "name": "",
                    "type": "uint16"
                },
                {
                    "internalType": "address",
                    "name": "",
                    "type": "address"
                }
            ],
            "stateMutability": "nonpayable",
            "type": "function"
        },
        {
            "inputs": [],
            "name": "cancel",
            "outputs": [
                {
                    "internalType": "address",
                    "name": "",
                    "type": "address"
                },
                {
                    "internalType": "uint16",
                    "name": "",
                    "type": "uint16"
                }
            ],
            "stateMutability": "nonpayable",
            "type": "function"
        },
        {
            "inputs": [],
            "name": "complete",
            "outputs": [
                {
                    "internalType": "address",
                    "name": "",
                    "type": "address"
                },
                {
                    "internalType": "uint16",
                    "name": "",
                    "type": "uint16"
                }
            ],
            "stateMutability": "nonpayable",
            "type": "function"
        },
        {
            "inputs": [],
            "name": "getStatus",
            "outputs": [
                {
                    "internalType": "enum SharedStructs.FlightStatuses",
                    "name": "",
                    "type": "uint8"
                },
                {
                    "internalType": "uint256",
                    "name": "",
                    "type": "uint256"
                }
            ],
            "stateMutability": "view",
            "type": "function"
        },
        {
            "inputs": [
                {
                    "internalType": "uint256",
                    "name": "newDepartureDateTime",
                    "type": "uint256"
                }
            ],
            "name": "updateDeparture",
            "outputs": [
                {
                    "internalType": "address",
                    "name": "",
                    "type": "address"
                }
            ],
            "stateMutability": "nonpayable",
            "type": "function"
        }
    ],
    "bytecode": "60806040523480156200001157600080fd5b506040516200136a3803806200136a833981016040819052620000349162000155565b83516200004990600090602087019062000081565b5060018390556002929092556003805460ff191690556004805463ffffffff191661ffff929092169190911790556005555062000294565b8280546200008f9062000258565b90600052602060002090601f016020900481019282620000b35760008555620000fe565b82601f10620000ce57805160ff1916838001178555620000fe565b82800160010185558215620000fe579182015b82811115620000fe578251825591602001919060010190620000e1565b506200010c92915062000110565b5090565b5b808211156200010c576000815560010162000111565b634e487b7160e01b600052604160045260246000fd5b805161ffff811681146200015057600080fd5b919050565b600080600080608085870312156200016c57600080fd5b84516001600160401b03808211156200018457600080fd5b818701915087601f8301126200019957600080fd5b815181811115620001ae57620001ae62000127565b604051601f8201601f19908116603f01168101908382118183101715620001d957620001d962000127565b81604052828152602093508a84848701011115620001f657600080fd5b600091505b828210156200021a5784820184015181830185015290830190620001fb565b828211156200022c5760008484830101525b809850505050808701519450505062000248604086016200013d565b6060959095015193969295505050565b600181811c908216806200026d57607f821691505b6020821081036200028e57634e487b7160e01b600052602260045260246000fd5b50919050565b6110c680620002a46000396000f3fe60806040523480156200001157600080fd5b50600436106200005e5760003560e01c80634e69d5601462000063578063522e1177146200008e5780637d053fb914620000bb578063e74e6ede14620000f5578063ea8a1af01462000125575b600080fd5b6200007560035460025460ff90911691565b6040516200008592919062000833565b60405180910390f35b620000986200012f565b604080516001600160a01b03909316835261ffff90911660208301520162000085565b620000d2620000cc3660046200088b565b62000333565b6040805161ffff90931683526001600160a01b0390911660208301520162000085565b6200010c6200010636600462000901565b6200054a565b6040516001600160a01b03909116815260200162000085565b6200009862000679565b600080600260035460ff1660048111156200014e576200014e6200081d565b14620001b95760405162461bcd60e51b815260206004820152602f60248201527f466c69676874206d75737420626520696e207472616e736974206265666f726560448201526e1031b7b6b83632ba34b7339034ba1760891b60648201526084015b60405180910390fd5b6003805460ff1916811790556000805b600654811015620003255760068181548110620001ea57620001ea6200091b565b60009182526020822001546001600160a01b03169250826001600160a01b0316634e69d5606040518163ffffffff1660e01b8152600401602060405180830381865afa1580156200023f573d6000803e3d6000fd5b505050506040513d601f19601f8201168201806040525081019062000265919062000931565b60028111156200027957620002796200081d565b036200031057600681815481106200029557620002956200091b565b600091825260208220015460408051635efabc1b60e01b815290516001600160a01b0390921692635efabc1b92600480840193829003018183875af1158015620002e3573d6000803e3d6000fd5b505050506040513d6000823e601f3d908101601f191682016040526200030d919081019062000971565b50505b806200031c8162000a7d565b915050620001c9565b505060065430939092509050565b6000808060035460ff1660048111156200035157620003516200081d565b1480620003775750600160035460ff1660048111156200037557620003756200081d565b145b620004015760405162461bcd60e51b815260206004820152604d60248201527f426f6f6b696e6720666f72207468697320666c69676874206973206e6f74206160448201527f6c6c6f776564206173206974206973206569746865722064657061727465642060648201526c37b91031b0b731b2b63632b21760991b608482015260a401620001b0565b60045461ffff9081169085161115620004525760405162461bcd60e51b81526020600482015260126024820152714e6f20736561747320617661696c61626c6560701b6044820152606401620001b0565b60006005548561ffff1662000468919062000a99565b90506000306004600281819054906101000a900461ffff166200048b9062000abb565b91906101000a81548161ffff021916908361ffff160217905588888589604051620004b6906200080f565b620004c79695949392919062000adf565b604051809103906000f080158015620004e4573d6000803e3d6000fd5b50600680546001810182556000919091527ff652222313e28459528d920b65115c16c04f3efc82aaedc97be59f3f377c0d3f0180546001600160a01b0319166001600160a01b03831617905560045462010000900461ffff169890975095505050505050565b60008060035460ff1660048111156200056757620005676200081d565b14806200058d5750600160035460ff1660048111156200058b576200058b6200081d565b145b620006205760405162461bcd60e51b815260206004820152605660248201527f4465706172747572652075706461746520666f72207468697320666c6967687460448201527f206973206e6f7420616c6c6f77656420617320697420697320656974686572206064820152753232b830b93a32b21037b91031b0b731b2b63632b21760511b608482015260a401620001b0565b60028290554282106200064857600380546002919060ff19166001835b021790555062000672565b6001548211156200066757600380546001919060ff191682806200063d565b6003805460ff191690555b5030919050565b600080600260035460ff1660048111156200069857620006986200081d565b14158015620006c057506003805460ff166004811115620006bd57620006bd6200081d565b14155b620007425760405162461bcd60e51b8152602060048201526044602482018190527f466c696768742069732065697468657220696e207472616e736974206f722063908201527f6f6d706c657465642e2048656e63652063616e6e6f742062652063616e63656c6064820152633632b21760e11b608482015260a401620001b0565b6003805460ff1916600417905560005b6006548110156200080357600681815481106200077357620007736200091b565b600091825260208220015460408051635efabc1b60e01b815290516001600160a01b0390921692635efabc1b92600480840193829003018183875af1158015620007c1573d6000803e3d6000fd5b505050506040513d6000823e601f3d908101601f19168201604052620007eb919081019062000971565b50508080620007fa9062000a7d565b91505062000752565b50506006543092909150565b6104cc8062000bc583390190565b634e487b7160e01b600052602160045260246000fd5b60408101600584106200085657634e487b7160e01b600052602160045260246000fd5b9281526020015290565b6001600160a01b03811681146200087657600080fd5b50565b8035620008868162000860565b919050565b600080600060608486031215620008a157600080fd5b833567ffffffffffffffff811115620008b957600080fd5b840160408187031215620008cc57600080fd5b9250602084013561ffff81168114620008e457600080fd5b91506040840135620008f68162000860565b809150509250925092565b6000602082840312156200091457600080fd5b5035919050565b634e487b7160e01b600052603260045260246000fd5b6000602082840312156200094457600080fd5b8151600381106200095457600080fd5b9392505050565b634e487b7160e01b600052604160045260246000fd5b600080604083850312156200098557600080fd5b8251620009928162000860565b8092505060208084015167ffffffffffffffff80821115620009b357600080fd5b818601915086601f830112620009c857600080fd5b815181811115620009dd57620009dd6200095b565b604051601f8201601f19908116603f0116810190838211818310171562000a085762000a086200095b565b81604052828152898684870101111562000a2157600080fd5b600093505b8284101562000a45578484018601518185018701529285019262000a26565b8284111562000a575760008684830101525b8096505050505050509250929050565b634e487b7160e01b600052601160045260246000fd5b60006001820162000a925762000a9262000a67565b5060010190565b600081600019048311821515161562000ab65762000ab662000a67565b500290565b600061ffff80831681810362000ad55762000ad562000a67565b6001019392505050565b6001600160a01b038716815261ffff8616602082015260c060408201526000853536879003601e1901811262000b1457600080fd5b8601803567ffffffffffffffff81111562000b2e57600080fd5b80360388131562000b3e57600080fd5b604060c085015280610100850152610120816020840182870137600081838701015262000b6e60208a0162000879565b6001600160a01b031660e086015261ffff88166060860152601f91909101601f1916840101915062000b9d9050565b83608083015262000bb960a08301846001600160a01b03169052565b97965050505050505056fe608060405234801561001057600080fd5b506040516104cc3803806104cc83398101604081905261002f916101fe565b6001805461ffff8716600160a01b026001600160b01b03199091166001600160a01b038916171790558351805161006e916002916020909101906100c9565b5060209390930151600380546001600160a01b03199081166001600160a01b03938416179091556005805461ffff191661ffff9590951694909417909355600491909155600080549092169216919091179055506103749050565b8280546100d59061033a565b90600052602060002090601f0160209004810192826100f7576000855561013d565b82601f1061011057805160ff191683800117855561013d565b8280016001018555821561013d579182015b8281111561013d578251825591602001919060010190610122565b5061014992915061014d565b5090565b5b80821115610149576000815560010161014e565b80516001600160a01b038116811461017957600080fd5b919050565b805161ffff8116811461017957600080fd5b634e487b7160e01b600052604160045260246000fd5b604080519081016001600160401b03811182821017156101c8576101c8610190565b60405290565b604051601f8201601f191681016001600160401b03811182821017156101f6576101f6610190565b604052919050565b60008060008060008060c0878903121561021757600080fd5b61022087610162565b9550602061022f81890161017e565b60408901519096506001600160401b038082111561024c57600080fd5b908901906040828c03121561026057600080fd5b6102686101a6565b82518281111561027757600080fd5b8301601f81018d1361028857600080fd5b80518381111561029a5761029a610190565b6102ac601f8201601f191687016101ce565b93508084528d868284010111156102c257600080fd5b60005b818110156102e05782810187015185820188015286016102c5565b818111156102f15760008783870101525b505050818152610302848401610162565b84820152809750505050506103196060880161017e565b92506080870151915061032e60a08801610162565b90509295509295509295565b600181811c9082168061034e57607f821691505b60208210810361036e57634e487b7160e01b600052602260045260246000fd5b50919050565b610149806103836000396000f3fe6080604052600436106100345760003560e01c80634e69d560146100395780635efabc1b14610062578063ea8a1af014610062575b600080fd5b34801561004557600080fd5b5060075460ff166040516100599190610086565b60405180910390f35b6100786040805160208101909152600080825291565b6040516100599291906100ae565b60208101600383106100a857634e487b7160e01b600052602160045260246000fd5b91905290565b60018060a01b038316815260006020604081840152835180604085015260005b818110156100ea578581018301518582016060015282016100ce565b818111156100fc576000606083870101525b50601f01601f19169290920160600194935050505056fea264697066735822122065033a8c02408a067044e81f70cbac677fe600f698a842e4ab3fe5b12bed905664736f6c634300080d0033a2646970667358221220341654e5d09fff4837c55c1409023da7f215b16c0b13320a727984137cfda3b864736f6c634300080d0033",
    "sourcePath": "c:/Users/Vishal.Chawre/Downloads/Capstone-Project/group2/src/contracts/Flight.sol",
    "compiler": {
        "name": "solc",
        "version": "0.8.13+commit.abaa5c0e"
    },
    "functionHashes": {
        "bookTicket((string,address),uint16,address)": "7d053fb9",
        "cancel()": "ea8a1af0",
        "complete()": "522e1177",
        "getStatus()": "4e69d560",
        "updateDeparture(uint256)": "e74e6ede"
    },
    "gasEstimates": {
        "creation": {
            "codeDepositCost": "858800",
            "executionCost": "infinite",
            "totalCost": "infinite"
        },
        "external": {
            "bookTicket((string,address),uint16,address)": "infinite",
            "cancel()": "infinite",
            "complete()": "infinite",
            "getStatus()": "4450",
            "updateDeparture(uint256)": "53196"
        }
    }
}