{
    "contractName": "FlightRepository",
    "abi": [
        {
            "inputs": [
                {
                    "internalType": "string",
                    "name": "_flightNumber",
                    "type": "string"
                },
                {
                    "internalType": "uint256",
                    "name": "_departureDate",
                    "type": "uint256"
                }
            ],
            "name": "getFlightStatus",
            "outputs": [
                {
                    "internalType": "enum SharedStructs.FlightStatuses",
                    "name": "",
                    "type": "uint8"
                },
                {
                    "internalType": "uint256",
                    "name": "",
                    "type": "uint256"
                }
            ],
            "stateMutability": "pure",
            "type": "function"
        }
    ],
    "bytecode": "608060405234801561001057600080fd5b5061018b806100206000396000f3fe608060405234801561001057600080fd5b506004361061002b5760003560e01c8063ab4a80c814610030575b600080fd5b61004761003e366004610074565b50600091829150565b604051610055929190610129565b60405180910390f35b634e487b7160e01b600052604160045260246000fd5b6000806040838503121561008757600080fd5b823567ffffffffffffffff8082111561009f57600080fd5b818501915085601f8301126100b357600080fd5b8135818111156100c5576100c561005e565b604051601f8201601f19908116603f011681019083821181831017156100ed576100ed61005e565b8160405282815288602084870101111561010657600080fd5b826020860160208301376000602093820184015298969091013596505050505050565b604081016005841061014b57634e487b7160e01b600052602160045260246000fd5b928152602001529056fea2646970667358221220188d4cb3aeedc52070b7515a3afcb2f85c93a7795a9124ed7b957d25d56f23aa64736f6c634300080d0033",
    "sourcePath": "c:/Users/Vishal.Chawre/Downloads/Capstone-Project/group2/src/contracts/FlightRepository.sol",
    "compiler": {
        "name": "solc",
        "version": "0.8.13+commit.abaa5c0e"
    },
    "functionHashes": {
        "getFlightStatus(string,uint256)": "ab4a80c8"
    },
    "gasEstimates": {
        "creation": {
            "codeDepositCost": "79000",
            "executionCost": "129",
            "totalCost": "79129"
        },
        "external": {
            "getFlightStatus(string,uint256)": "infinite"
        }
    }
}