{
    "contractName": "Ticket",
    "abi": [
        {
            "inputs": [
                {
                    "internalType": "address",
                    "name": "flightAddress",
                    "type": "address"
                },
                {
                    "internalType": "uint16",
                    "name": "ticketNumber",
                    "type": "uint16"
                },
                {
                    "components": [
                        {
                            "internalType": "string",
                            "name": "name",
                            "type": "string"
                        },
                        {
                            "internalType": "address",
                            "name": "buyerAddress",
                            "type": "address"
                        }
                    ],
                    "internalType": "struct SharedStructs.Buyer",
                    "name": "buyer",
                    "type": "tuple"
                },
                {
                    "internalType": "uint16",
                    "name": "numberOfSeats",
                    "type": "uint16"
                },
                {
                    "internalType": "uint256",
                    "name": "amount",
                    "type": "uint256"
                },
                {
                    "internalType": "address",
                    "name": "ticketAgreementAddress",
                    "type": "address"
                }
            ],
            "stateMutability": "nonpayable",
            "type": "constructor"
        },
        {
            "inputs": [],
            "name": "cancel",
            "outputs": [
                {
                    "internalType": "address",
                    "name": "",
                    "type": "address"
                },
                {
                    "internalType": "string",
                    "name": "",
                    "type": "string"
                }
            ],
            "stateMutability": "payable",
            "type": "function"
        },
        {
            "inputs": [],
            "name": "getStatus",
            "outputs": [
                {
                    "internalType": "enum SharedStructs.TicketStatuses",
                    "name": "",
                    "type": "uint8"
                }
            ],
            "stateMutability": "view",
            "type": "function"
        },
        {
            "inputs": [],
            "name": "settleAccounts",
            "outputs": [
                {
                    "internalType": "address",
                    "name": "",
                    "type": "address"
                },
                {
                    "internalType": "string",
                    "name": "",
                    "type": "string"
                }
            ],
            "stateMutability": "payable",
            "type": "function"
        }
    ],
    "bytecode": "608060405234801561001057600080fd5b506040516104cc3803806104cc83398101604081905261002f916101fe565b6001805461ffff8716600160a01b026001600160b01b03199091166001600160a01b038916171790558351805161006e916002916020909101906100c9565b5060209390930151600380546001600160a01b03199081166001600160a01b03938416179091556005805461ffff191661ffff9590951694909417909355600491909155600080549092169216919091179055506103749050565b8280546100d59061033a565b90600052602060002090601f0160209004810192826100f7576000855561013d565b82601f1061011057805160ff191683800117855561013d565b8280016001018555821561013d579182015b8281111561013d578251825591602001919060010190610122565b5061014992915061014d565b5090565b5b80821115610149576000815560010161014e565b80516001600160a01b038116811461017957600080fd5b919050565b805161ffff8116811461017957600080fd5b634e487b7160e01b600052604160045260246000fd5b604080519081016001600160401b03811182821017156101c8576101c8610190565b60405290565b604051601f8201601f191681016001600160401b03811182821017156101f6576101f6610190565b604052919050565b60008060008060008060c0878903121561021757600080fd5b61022087610162565b9550602061022f81890161017e565b60408901519096506001600160401b038082111561024c57600080fd5b908901906040828c03121561026057600080fd5b6102686101a6565b82518281111561027757600080fd5b8301601f81018d1361028857600080fd5b80518381111561029a5761029a610190565b6102ac601f8201601f191687016101ce565b93508084528d868284010111156102c257600080fd5b60005b818110156102e05782810187015185820188015286016102c5565b818111156102f15760008783870101525b505050818152610302848401610162565b84820152809750505050506103196060880161017e565b92506080870151915061032e60a08801610162565b90509295509295509295565b600181811c9082168061034e57607f821691505b60208210810361036e57634e487b7160e01b600052602260045260246000fd5b50919050565b610149806103836000396000f3fe6080604052600436106100345760003560e01c80634e69d560146100395780635efabc1b14610062578063ea8a1af014610062575b600080fd5b34801561004557600080fd5b5060075460ff166040516100599190610086565b60405180910390f35b6100786040805160208101909152600080825291565b6040516100599291906100ae565b60208101600383106100a857634e487b7160e01b600052602160045260246000fd5b91905290565b60018060a01b038316815260006020604081840152835180604085015260005b818110156100ea578581018301518582016060015282016100ce565b818111156100fc576000606083870101525b50601f01601f19169290920160600194935050505056fea264697066735822122065033a8c02408a067044e81f70cbac677fe600f698a842e4ab3fe5b12bed905664736f6c634300080d0033",
    "sourcePath": "c:/Users/Vishal.Chawre/Downloads/Capstone-Project/group2/src/contracts/Ticket.sol",
    "compiler": {
        "name": "solc",
        "version": "0.8.13+commit.abaa5c0e"
    },
    "functionHashes": {
        "cancel()": "ea8a1af0",
        "getStatus()": "4e69d560",
        "settleAccounts()": "5efabc1b"
    },
    "gasEstimates": {
        "creation": {
            "codeDepositCost": "65800",
            "executionCost": "infinite",
            "totalCost": "infinite"
        },
        "external": {
            "cancel()": "418",
            "getStatus()": "2311",
            "settleAccounts()": "396"
        }
    }
}