{
    "contractName": "Ticket",
    "abi": [
        {
            "inputs": [
                {
                    "internalType": "string",
                    "name": "_flightNumber",
                    "type": "string"
                },
                {
                    "internalType": "uint256",
                    "name": "_departureDateTime",
                    "type": "uint256"
                },
                {
                    "internalType": "uint16",
                    "name": "_ticketNumber",
                    "type": "uint16"
                },
                {
                    "internalType": "uint16",
                    "name": "_numberOfSeats",
                    "type": "uint16"
                },
                {
                    "internalType": "uint256",
                    "name": "_amount",
                    "type": "uint256"
                },
                {
                    "internalType": "address",
                    "name": "_ticketAgreementAddress",
                    "type": "address"
                }
            ],
            "stateMutability": "nonpayable",
            "type": "constructor"
        },
        {
            "inputs": [],
            "name": "cancel",
            "outputs": [
                {
                    "internalType": "address",
                    "name": "",
                    "type": "address"
                }
            ],
            "stateMutability": "pure",
            "type": "function"
        }
    ],
    "bytecode": "608060405234801561001057600080fd5b5060405161034a38038061034a83398101604081905261002f91610175565b8551610042906001906020890190610098565b506002949094556003805461ffff1990811661ffff95861617909155600580549091169290931691909117909155600455600080546001600160a01b0319166001600160a01b03909216919091179055506102c5565b8280546100a49061028b565b90600052602060002090601f0160209004810192826100c6576000855561010c565b82601f106100df57805160ff191683800117855561010c565b8280016001018555821561010c579182015b8281111561010c5782518255916020019190600101906100f1565b5061011892915061011c565b5090565b5b80821115610118576000815560010161011d565b634e487b7160e01b600052604160045260246000fd5b805161ffff8116811461015957600080fd5b919050565b80516001600160a01b038116811461015957600080fd5b60008060008060008060c0878903121561018e57600080fd5b86516001600160401b03808211156101a557600080fd5b818901915089601f8301126101b957600080fd5b8151818111156101cb576101cb610131565b604051601f8201601f19908116603f011681019083821181831017156101f3576101f3610131565b81604052828152602093508c8484870101111561020f57600080fd5b600091505b828210156102315784820184015181830185015290830190610214565b828211156102425760008484830101525b809a50505050808901519650505061025c60408801610147565b935061026a60608801610147565b92506080870151915061027f60a0880161015e565b90509295509295509295565b600181811c9082168061029f57607f821691505b6020821081036102bf57634e487b7160e01b600052602260045260246000fd5b50919050565b6077806102d36000396000f3fe6080604052348015600f57600080fd5b506004361060285760003560e01c8063ea8a1af014602d575b600080fd5b604080516000815290519081900360200190f3fea26469706673582212206c472420262204172c29c80587fcb040e4a4b848ef627fb63f1abb5ae9e8d84764736f6c634300080d0033",
    "sourcePath": "c:/Users/Vishal.Chawre/Downloads/Capstone-Project/group2/src/contracts/Ticket.sol",
    "compiler": {
        "name": "solc",
        "version": "0.8.13+commit.abaa5c0e"
    },
    "functionHashes": {
        "cancel()": "ea8a1af0"
    },
    "gasEstimates": {
        "creation": {
            "codeDepositCost": "23800",
            "executionCost": "infinite",
            "totalCost": "infinite"
        },
        "external": {
            "cancel()": "149"
        }
    }
}