{
    "contractName": "TicketStore",
    "abi": [
        {
            "inputs": [
                {
                    "internalType": "string",
                    "name": "_flightNumber",
                    "type": "string"
                },
                {
                    "internalType": "uint256",
                    "name": "_departureDateTime",
                    "type": "uint256"
                },
                {
                    "internalType": "uint16",
                    "name": "numberOfSeats",
                    "type": "uint16"
                }
            ],
            "name": "buyTicket",
            "outputs": [
                {
                    "internalType": "uint16",
                    "name": "",
                    "type": "uint16"
                },
                {
                    "internalType": "address",
                    "name": "",
                    "type": "address"
                }
            ],
            "stateMutability": "pure",
            "type": "function"
        },
        {
            "inputs": [
                {
                    "internalType": "string",
                    "name": "_flightNumber",
                    "type": "string"
                },
                {
                    "internalType": "uint256",
                    "name": "_departureDateTime",
                    "type": "uint256"
                },
                {
                    "internalType": "uint16",
                    "name": "ticketNumber",
                    "type": "uint16"
                }
            ],
            "name": "cancelTicket",
            "outputs": [
                {
                    "internalType": "bool",
                    "name": "",
                    "type": "bool"
                }
            ],
            "stateMutability": "pure",
            "type": "function"
        },
        {
            "inputs": [
                {
                    "internalType": "string",
                    "name": "_flightNumber",
                    "type": "string"
                },
                {
                    "internalType": "uint256",
                    "name": "_departureDateTime",
                    "type": "uint256"
                },
                {
                    "internalType": "uint16",
                    "name": "ticketNumber",
                    "type": "uint16"
                }
            ],
            "name": "claimRefund",
            "outputs": [
                {
                    "internalType": "bool",
                    "name": "",
                    "type": "bool"
                }
            ],
            "stateMutability": "pure",
            "type": "function"
        },
        {
            "inputs": [
                {
                    "internalType": "string",
                    "name": "_flightNumber",
                    "type": "string"
                },
                {
                    "internalType": "uint256",
                    "name": "_departureDateTime",
                    "type": "uint256"
                }
            ],
            "name": "flightCancelled",
            "outputs": [
                {
                    "internalType": "bool",
                    "name": "",
                    "type": "bool"
                }
            ],
            "stateMutability": "pure",
            "type": "function"
        },
        {
            "inputs": [
                {
                    "internalType": "string",
                    "name": "_flightNumber",
                    "type": "string"
                },
                {
                    "internalType": "uint256",
                    "name": "_originalDepartureDateTime",
                    "type": "uint256"
                },
                {
                    "internalType": "uint256",
                    "name": "_newDepartureDateTime",
                    "type": "uint256"
                }
            ],
            "name": "flightDelayed",
            "outputs": [
                {
                    "internalType": "bool",
                    "name": "",
                    "type": "bool"
                }
            ],
            "stateMutability": "pure",
            "type": "function"
        },
        {
            "inputs": [
                {
                    "internalType": "string",
                    "name": "_flightNumber",
                    "type": "string"
                },
                {
                    "internalType": "uint256",
                    "name": "_departureDateTime",
                    "type": "uint256"
                }
            ],
            "name": "flightDeparted",
            "outputs": [
                {
                    "internalType": "bool",
                    "name": "",
                    "type": "bool"
                }
            ],
            "stateMutability": "pure",
            "type": "function"
        },
        {
            "inputs": [
                {
                    "internalType": "address",
                    "name": "_ticketAgreementAddress",
                    "type": "address"
                }
            ],
            "name": "setTicketAgreement",
            "outputs": [
                {
                    "internalType": "bool",
                    "name": "",
                    "type": "bool"
                }
            ],
            "stateMutability": "nonpayable",
            "type": "function"
        }
    ],
    "bytecode": "608060405234801561001057600080fd5b5061033e806100206000396000f3fe608060405234801561001057600080fd5b506004361061007d5760003560e01c8063669326791161005b578063669326791461008257806396182290146100ff578063bdbb5b11146100ff578063d4682e5c1461010d57600080fd5b8063335068da146100825780634bf93486146100ad5780635e3aeb4d146100e8575b600080fd5b6100986100903660046101e3565b600192915050565b60405190151581526020015b60405180910390f35b6100c66100bb366004610228565b600080935093915050565b6040805161ffff90931683526001600160a01b039091166020830152016100a4565b6100986100f636600461028a565b60019392505050565b6100986100f6366004610228565b61009861011b3660046102d8565b600180546001600160a01b0319166001600160a01b0392909216919091179055600090565b634e487b7160e01b600052604160045260246000fd5b600082601f83011261016757600080fd5b813567ffffffffffffffff8082111561018257610182610140565b604051601f8301601f19908116603f011681019082821181831017156101aa576101aa610140565b816040528381528660208588010111156101c357600080fd5b836020870160208301376000602085830101528094505050505092915050565b600080604083850312156101f657600080fd5b823567ffffffffffffffff81111561020d57600080fd5b61021985828601610156565b95602094909401359450505050565b60008060006060848603121561023d57600080fd5b833567ffffffffffffffff81111561025457600080fd5b61026086828701610156565b93505060208401359150604084013561ffff8116811461027f57600080fd5b809150509250925092565b60008060006060848603121561029f57600080fd5b833567ffffffffffffffff8111156102b657600080fd5b6102c286828701610156565b9660208601359650604090950135949350505050565b6000602082840312156102ea57600080fd5b81356001600160a01b038116811461030157600080fd5b939250505056fea2646970667358221220ecbabc7e42bb845d636ed7e9fcad2bbd910bcf23243887470e673b9a325a531e64736f6c634300080d0033",
    "sourcePath": "c:/Users/Vishal.Chawre/Downloads/Capstone-Project/group2/src/contracts/TicketStore.sol",
    "compiler": {
        "name": "solc",
        "version": "0.8.13+commit.abaa5c0e"
    },
    "functionHashes": {
        "buyTicket(string,uint256,uint16)": "4bf93486",
        "cancelTicket(string,uint256,uint16)": "96182290",
        "claimRefund(string,uint256,uint16)": "bdbb5b11",
        "flightCancelled(string,uint256)": "335068da",
        "flightDelayed(string,uint256,uint256)": "5e3aeb4d",
        "flightDeparted(string,uint256)": "66932679",
        "setTicketAgreement(address)": "d4682e5c"
    },
    "gasEstimates": {
        "creation": {
            "codeDepositCost": "166000",
            "executionCost": "208",
            "totalCost": "166208"
        },
        "external": {
            "buyTicket(string,uint256,uint16)": "infinite",
            "cancelTicket(string,uint256,uint16)": "infinite",
            "claimRefund(string,uint256,uint16)": "infinite",
            "flightCancelled(string,uint256)": "infinite",
            "flightDelayed(string,uint256,uint256)": "infinite",
            "flightDeparted(string,uint256)": "infinite",
            "setTicketAgreement(address)": "24648"
        }
    }
}